:100000000C9486000C942D080C945A080C94AE00A5
:100010000C94AE000C94AE000C94AE000C94AE00A8
:100020000C94AE000C94AE000C94AE000C94AE0098
:100030000C94AE000C94AE000C94AE000C94AE0088
:100040000C9448090C94AE000C94540C0C94860C3F
:100050000C94AE000C94AE000C94AE000C94AE0068
:100060000C94AE000C94AE0007634236B79BD8A741
:100070001A39685618AEBAAB558C1D3CB7CC5763CD
:10008000BD6DEDFD753EF6177231BF000000803F7B
:1000900005A84CCDB2D44EB93836A9020C50B9914E
:1000A0008688083CA6AAAA2ABE000000803F00005D
:1000B0000008000201000003040700000000000027
:1000C00000000102040810204080010204081020F2
:1000D00001020408102004040404040404040202BD
:1000E00002020202030303030303000000002300D3
:1000F0002600290000000000250028002B00000039
:100100000000240027002A00F402B60C11241FBEB0
:10011000CFEFD8E0DEBFCDBF11E0A0E0B1E0ECE66C
:10012000F0E202C005900D92A63CB107D9F722E09B
:10013000A6ECB1E001C01D92A13DB207E1F711E0CC
:10014000CCE0D1E004C02297FE010E943010C830FC
:10015000D107C9F70E94260A0C9434100C940000B1
:100160000F931F930E9492090091CB011091CC0133
:100170002091CD013091CE01601B710B820B930B4E
:10018000643F71408105910590F00E94920960934F
:10019000CB017093CC018093CD019093CE018091DF
:1001A000C60191E089278093C601109200011F913A
:1001B0000F9108958AB183708AB914B88BB18C6F8E
:1001C0008BB985B18FEF85B926E040E855E260E054
:1001D00070E084E392E00E94180B61E089E00E94E5
:1001E000B00860E089E00E94E90860E081E00E94D8
:1001F000B00860E089E00E94E90827E541E066E593
:100200008FEC91E00E94970661E08FEC91E00E94F4
:10021000AA0361E071E08FEC91E00E945E068FEC32
:1002200091E00E94480481E08093DD011092DC019E
:1002300042E050E060EB70E00E94FD0762E171E097
:1002400084E392E00C94D50B8F929F92AF92BF9271
:10025000CF92DF92EF92FF924B015C010E949209D4
:100260006B017C010E9492096C197D098E099F091E
:1002700086169706A806B90670F18091C6018823F4
:1002800051F10E9492096C197D098E099F090E9403
:10029000280E20E030E04AE754E40E945E0D2BED8A
:1002A0003FE049E450E40E944B0F0E94AE0F0E94D1
:1002B000CB0D22EB3AE54CEB5EE30E94F90C20E01B
:1002C00030E048ED52E40E944B0F0E94F70D89E0A8
:1002D0000E949E07C7CFFF90EF90DF90CF90BF9016
:1002E000AF909F908F900895CF92DF92EF92FF9200
:1002F0000F93CF93809100018111F4C00E94920965
:100300006093C7017093C8018093C9019093CA019B
:10031000C1E0C093DC0181E00E941D086BE171E047
:1003200084E392E00E94B80B4AE050E06091DD0166
:1003300084E392E00E944D0C67E271E084E392E076
:100340000E94B80B4AE050E06091DC0184E392E047
:100350000E944D0C01E022E04CED51E06EEF8FEC7D
:1003600091E00E94AA05C093000169E271E084E374
:1003700092E00E94B80B0E9492096B017C010E94DE
:1003800092096C197D098E099F09633371058105F6
:100390009105C0F46EEF8FEC91E00E94EF05882389
:1003A00071F36FE971E084E392E00E94B80B0E9460
:1003B00092096093C7017093C8018093C90190931B
:1003C000CA011CC063EA71E084E392E00E94B80BAA
:1003D0001092C60161E089E00E94E9080E9492093A
:1003E0006093C7017093C8018093C9019093CA01BB
:1003F00064E670E080E090E00E94C10960E089E07E
:100400000E94E9080E9492096B017C010E949209F6
:100410006C197D098E099F0961317742810591052B
:1004200008F0CCC061E089E00E94E9088FEC91E01F
:100430000E949205882351F360E089E00E94E90858
:100440008091E701823009F48FC06FE371E084E3AB
:1004500092E00E94B80BC0E08FEC91E00E941F0375
:10046000882369F040E066E271E08FEC91E00E9441
:100470000A0663E671E084E392E00E94D50BCC2388
:1004800009F49CC08091DA01833009F097C06CE6D2
:1004900071E084E392E00E94B80B60EE7EE280E0BF
:1004A00090E00E94240160E089E00E94E908109237
:1004B000C6018FEC91E00E94480442E050E060EBFE
:1004C00070E081E00E94FD0784E392E00E94C10B8E
:1004D0000E9492096093C7017093C8018093C9017B
:1004E0009093CA010E949209C090C701D090C801A0
:1004F000E090C901F090CA016C197D098E099F092D
:10050000683E73408105910508F467C065E871E0B5
:1005100084E392E00E94B80B64E670E080E090E033
:100520000E94C10983B7817F8C6083BF83B78160DC
:1005300083BF83B7816083BF889583B78E7F83BF76
:1005400083B78E7F83BF67E971E084E392E00E9406
:10055000D50B0E9492096093C7017093C8018093E4
:10056000C9019093CA0139C08091E9019091EA01D3
:100570009093DB018093DA0168E571E084E392E017
:100580000E94B80B4AE050E06091DB0184E392E006
:100590000E944D0C67E271E084E392E00E94B80B88
:1005A0004AE050E06091DA0184E392E00E944D0C51
:1005B00084E392E00E94C10BC1E04ECF68E771E096
:1005C00084E392E00E94B80B4AE050E06091DA01C7
:1005D00084E392E00E944D0C66CFCF910F91FF9083
:1005E000EF90DF90CF90089583EB91E09093D0014E
:1005F0008093CF018AE08093D10182E08093D20181
:100600001092D30181E08093E8011092D5018FE12F
:100610008093D6011092D70108958091DE019091C8
:10062000DF01DC01ED91FC910190F081E02D099456
:100630008EBD00000DB407FEFDCF8EB508958091EC
:10064000E301882329F09091E50181E09F3F09F4BF
:1006500080E00895FC01F8948CB581878DB5828780
:100660008CB5837F8CBD8CB58F7D8CBD8CB58C7F1C
:100670008CBD8DB58E7F8DBD60E082810C94E908C4
:10068000CF93DF93EC0161E08A810E94E9088985BC
:100690008CBD8A858DBD7894DF91CF910895EF92BE
:1006A000FF921F93CF93DF931F92CDB7DEB77C01EC
:1006B00069830E942A036981862F8F770E9418031D
:1006C00080E00E941803182FC7010E944003812F69
:1006D0000F90DF91CF911F91FF90EF9008950F93AE
:1006E0001F93CF93DF9300D0CDB7DEB78C014A8341
:1006F00069830E942A036981862F80680E941803FB
:100700004A81842F0E941803C8010F900F90DF9137
:10071000CF911F910F910C944003CF93DF93EC0185
:1007200061110DC064E2CE010E944F0390E09195EB
:100730008195910995958795DF91CF91089541E035
:1007400063E20E946F0363E2CE010E944F0381FFC8
:10075000FACFE8CFCF93DF93EC016887662311F0DF
:100760004FE001C04AE163E1CE010E946F0388853A
:10077000882341F061E1CE010E944F03482F4F7161
:10078000406602C04F81406861E1CE01DF91CF91A8
:100790000C946F031F93CF93DF93EC01162F662306
:1007A00011F04DE501C045E56AE5CE010E946F03F9
:1007B000112311F04CE701C040E76CE5CE01DF9159
:1007C000CF911F910C946F031F93CF93DF93EC0194
:1007D000162F8091E801681709F456C06230B1F114
:1007E00068F46623D9F1613009F04EC061E0CE01B2
:1007F0000E944F03482F437E446036C0633099F017
:10080000643009F041C061E0CE010E944F03482FDF
:10081000437E4C6061E0CE010E946F03888588238F
:1008200039F161E00FC061E0CE010E944F03482F13
:10083000437E406161E0CE010E946F03888588237A
:10084000B9F060E0CE010E94CA0312C061E0CE019F
:100850000E944F03482F437E486006C061E0CE01EE
:100860000E944F03482F437E61E0CE010E946F0338
:100870008091E801811106C067E2CE010E944F031A
:1008800087FFF6CF1093E801DF91CF911F91089574
:1008900060E00C94E403CF93DF93EC018091E801D6
:1008A000833089F48091E40181110DC060E0CE01B4
:1008B0000E948D03863A9F4F34F461E0CE010E947E
:1008C000E40381E001C080E0DF91CF910895CF92F1
:1008D000DF92EF92FF920F931F93CF93DF93EC0180
:1008E000F62ED42EC52E122F61E00E94E40367E29B
:1008F000CE010E944F0387FFFACF40E065E2CE01B0
:100900000E946F031E3308F01DE3E11004C00023B2
:1009100019F000E401C000E8CE010E942A0380E83B
:100920000E94180383E0810F0E9418038F2D0E94FC
:1009300018038D810E941803802F0E9418030D2D2B
:10094000ED2CFC2C8E2D801B811730F4F70181914A
:100950007F010E941803F6CFCE010E94400364E09D
:10096000CE010E94E4030E9492096B017C018B81FD
:100970000E941F09892B61F061E0CE01DF91CF91C8
:100980001F910F91FF90EF90DF90CF900C94E403B4
:100990000E9492096C197D098E099F09683E734077
:1009A0008105910548F7E3CFCF93DF93EC011092D7
:1009B000E7011092E6011092E5011092E401109215
:1009C000E3011092E2011092E1011092E00168E26D
:1009D0000E944F0382FF0AC06DE3CE010E944F03C5
:1009E000482F44606DE3CE010E946F0340E465E24E
:1009F000CE010E946F0363E0CE01DF91CF910C9492
:100A0000E403FF920F931F93CF93DF93EC01809148
:100A1000E8018330C1F468E2CE010E944F0382FDF9
:100A200020C011C08091E7018D3330F4E091E701DF
:100A3000F0E0E751FE4F1082CE010E94400363E0D8
:100A4000CE010E94E40360E0CE010E948D039093EA
:100A5000E1018093E001DF91CF911F910F91FF9011
:100A6000089561E0CE010E94E403CE010E942A03B2
:100A700080E00E94180380E00E9418038093E40144
:100A80008091E4018334D0F48091E4018093E40107
:100A900080E00E9418038093E5018E81811109C0D6
:100AA0009091E5018D81981721F08091E5018F3FAC
:100AB00039F48091E401833018F00FC082E4E6CF6E
:100AC0001092E401CE010E944003CE01DF91CF914C
:100AD0001F910F91FF900C94D4048091E4018350F6
:100AE0008093E70180E00E9418038093E60180E094
:100AF0000E941803982F90789093E201807480935D
:100B0000E301F12C8091E701F81608F08BCF0F2D4F
:100B100010E080E00E941803F801E751FE4F808347
:100B2000F394F0CFF8942091E801233021F4209140
:100B3000E40121110AC02091E801233011F47894D6
:100B400002C00E94D40480E0089561E00E94E403A2
:100B500081E008954F925F926F927F929F92AF9241
:100B6000BF92EF920F931F93CF93DF93EC01162F59
:100B70005A01922E6DE30E944F03482F44606DE3AB
:100B8000CE010E946F030E9492092B013C01CE010D
:100B90000E944B048823A1F0E12C292DA501612F8F
:100BA000CE010E946704DF91CF911F910F91EF90CA
:100BB000BF90AF909F907F906F905F904F900895FF
:100BC0000E9492096419750986099709683E734065
:100BD0008105910508F7CE010E949205D8CFCF93E9
:100BE000DF931F92CDB7DEB769830E9492056981BA
:100BF000882359F08091E601861711F06F3F29F4A0
:100C00009091E20181E0911101C080E00F90DF91AD
:100C1000CF9108954F925F926F927F929F92AF9281
:100C2000BF92CF92DF92EF92FF920F93CF93DF9319
:100C3000EC015B01942EF090E601C090E001D090B1
:100C4000E1016DE30E944F03482F44606DE3CE0144
:100C50000E946F030E9492092B013C01CE010E9469
:100C60004B048823E1F0EE24E39400E0292DA50154
:100C70006F2DCE010E946704D092E101C092E00185
:100C8000DF91CF910F91FF90EF90DF90CF90BF90C9
:100C9000AF909F907F906F905F904F9008950E94CB
:100CA00092096419750986099709683E73408105A0
:100CB0009105C8F6CE010E949205D0CFDF92EF9247
:100CC000FF920F931F93CF93DF93EC018B0161E0B1
:100CD0000E94E40301151105A1F0CE010E942A0330
:100CE0008EEB0E9418037801D12CF70181917F01CE
:100CF0000E941803D394F0E1DF12F7CFCE010E94D7
:100D000040036DE3CE010E944F038E7F91E0012BE3
:100D100009F490E0482F492B6DE3CE01DF91CF918C
:100D20001F910F91FF90EF90DF900C946F03CF9283
:100D3000DF92EF92FF920F931F93CF93DF93CDB784
:100D4000DEB7AE970FB6F894DEBF0FBECDBF8C01F5
:100D5000C42E8EE2AE014F5F5F4F7A01FA01482F39
:100D600011924A95E9F791E0998334E03A8342E0A1
:100D70004B8393E09D834E833F8340E4488735E077
:100D800039879A8796E09B8793E39C8737E03D8776
:100D900098E09F8799E0998B99E19B8B92E49C8BDB
:100DA00055E25D8B4E8B46E24F8B388F38E2398FA0
:100DB00030E13A8F39E23B8F3CED3C8F8D8F88E8F4
:100DC0008E8F8FE28F8F8DE288A380E389A337E334
:100DD0003BA330E93CA338E33DA39EA39CE39FA340
:100DE0009FE898A79DE399A792E19AA79FE69BA702
:100DF0008CA78FEF8DA76F3131F06B3231F06635F4
:100E000031F489ED05C08EE403C08CE601C084EEA8
:100E10008E876F3141F06B3221F0663521F480E02E
:100E200003C080E401C080EC888B2AA361E0F80154
:100E300082810E94E90861E0F80182810E94B00885
:100E40000E9479074AEA6FE2C8010E946F036FE2CD
:100E5000C8010E944F038A3AA9F745E56FE2C8012D
:100E60000E946F036FE2C8010E944F038535A9F706
:100E7000D12CF701ED0DF11DED0DF11D60816F3FDE
:100E800031F04181C8010E946F03D394F2CF60E03A
:100E900070E0C8010E945E06F8016085C8010E94EA
:100EA000AA0361E0C8010E94E40367E2C8010E944E
:100EB0004F0387FFFACF43E050E06DE073E0F801A5
:100EC00084810E94FD071093DF010093DE01F80189
:100ED000C58281E0AE960FB6F894DEBF0FBECDBFDF
:100EE000DF91CF911F910F91FF90EF90DF90CF9006
:100EF0000895CF93CFB7F89480912602811116C040
:100F000061E08AE00E94E90861E08AE00E94B0089E
:100F10008CB580618CBD8CB580648CBD61E08DE04A
:100F20000E94B00861E08BE00E94B0088091260228
:100F30008F5F80932602CFBFCF9108951F93CF93E9
:100F4000DF93182FEB0161E00E94B008209711F4A5
:100F500060E004C0CF3FD10539F461E0812FDF911B
:100F6000CF911F910C94E908E12FF0E0E255FF4F7B
:100F7000E491E330F9F048F4E130B9F0E230A1F562
:100F800084B5806284BDC8BD34C0E730E9F0E83084
:100F900019F1E43049F580918000806280938000EF
:100FA000D0938B00C0938A0024C084B5806884BD30
:100FB000C7BD1FC080918000806880938000D0935F
:100FC0008900C093880015C08091B000806880932C
:100FD000B000C093B3000DC08091B00080628093D8
:100FE000B000C093B40005C0C038D1050CF0B5CF37
:100FF000AFCFDF91CF911F9108958230E8F4E82FB1
:10100000F0E0EE0FFF1FE95DFD4F718360838130DB
:1010100041F0809169008C7F842B80936900E89A6D
:10102000089580916900440F551F440F551F837F19
:10103000842B80936900E99A0895823068F48130A6
:1010400011F0E89801C0E998E82FF0E0EE0FFF1FDB
:10105000E95DFD4F1182108208951F920F920FB625
:101060000F9211242F933F934F935F936F937F932E
:101070008F939F93AF93BF93EF93FF93809127023A
:1010800090912802892B29F0E0912702F091280203
:101090000995FF91EF91BF91AF919F918F917F91B2
:1010A0006F915F914F913F912F910F900FBE0F90D5
:1010B0001F9018951F920F920FB60F9211242F9325
:1010C0003F934F935F936F937F938F939F93AF93D0
:1010D000BF93EF93FF938091290290912A02892B6D
:1010E00029F0E0912902F0912A020995FF91EF91F0
:1010F000BF91AF919F918F917F916F915F914F9130
:101100003F912F910F900FBE0F901F901895833035
:1011100081F028F4813099F08230A1F00895873071
:10112000A9F08830B9F08430D1F4809180008F7DAF
:1011300003C0809180008F7780938000089584B5EC
:101140008F7702C084B58F7D84BD08958091B000F3
:101150008F7703C08091B0008F7D8093B000089599
:10116000CF93DF9390E0FC01EE53FF4F2491FC01FD
:10117000EA52FF4F8491882349F190E0880F991F2C
:10118000FC01E250FF4FA591B4918C509F4FFC01A0
:10119000C591D4919FB7611108C0F8948C912095A6
:1011A00082238C93888182230AC0623051F4F894A0
:1011B0008C91322F309583238C938881822B888366
:1011C00004C0F8948C91822B8C939FBFDF91CF91B8
:1011D00008950F931F93CF93DF931F92CDB7DEB780
:1011E000282F30E0F901E255FF4F8491F901EE53C9
:1011F000FF4F1491F901EA52FF4F04910023C9F007
:10120000882321F069830E9487086981E02FF0E03C
:10121000EE0FFF1FEC50FF4FA591B4919FB7F894CC
:101220008C91611103C01095812301C0812B8C9397
:101230009FBF0F90DF91CF911F910F910895CF9392
:10124000DF93282F30E0F901E255FF4F8491F90137
:10125000EE53FF4FD491F901EA52FF4FC491CC23D2
:1012600091F081110E948708EC2FF0E0EE0FFF1F34
:10127000E651FF4FA591B4912C912D2381E090E090
:1012800021F480E002C080E090E0DF91CF910895EA
:101290001F920F920FB60F9211242F933F938F93AB
:1012A0009F93AF93BF9380912C0290912D02A091B8
:1012B0002E02B0912F0230912B0223E0230F2D3705
:1012C00020F40196A11DB11D05C026E8230F02964A
:1012D000A11DB11D20932B0280932C0290932D020F
:1012E000A0932E02B0932F02809130029091310290
:1012F000A0913202B09133020196A11DB11D8093DD
:10130000300290933102A0933202B0933302BF9126
:10131000AF919F918F913F912F910F900FBE0F90A2
:101320001F9018952FB7F89460912C0270912D02A0
:1013300080912E0290912F022FBF08953FB7F8940D
:101340008091300290913102A0913202B09133022B
:1013500026B5A89B05C02F3F19F00196A11DB11D10
:101360003FBF6627782F892F9A2F620F711D811D2D
:10137000911D42E0660F771F881F991F4A95D1F78C
:101380000895CF92DF92EF92FF92CF93DF936B019C
:101390007C010E949E09EB01C114D104E104F10417
:1013A00089F00E94240A0E949E096C1B7D0B683EF6
:1013B000734090F381E0C81AD108E108F108C851E0
:1013C000DC4FEACFDF91CF91FF90EF90DF90CF908D
:1013D0000895789484B5826084BD84B5816084BDAD
:1013E00085B5826085BD85B5816085BDEEE6F0E09E
:1013F000808181608083E1E8F0E0108280818260FA
:101400008083808181608083E0E8F0E0808181607A
:101410008083E1EBF0E0808184608083E0EBF0E0AA
:10142000808181608083EAE7F0E08081846080834E
:1014300080818260808380818160808380818068F8
:1014400080831092C1000895089508950E94E909CB
:101450000E94250A0E94DA00C2E6DAE00E947401C6
:101460002097E1F30E94620AF9CFFC01818D228D61
:1014700090E0805C9F4F821B91098F73992708959C
:10148000FC01918D828D981731F0828DE80FF11D4E
:10149000858D90E008958FEF9FEF0895FC01918D69
:1014A000828D981761F0828DDF01A80FB11D5D96C6
:1014B0008C91928D9F5F9F73928F90E008958FEF34
:1014C0009FEF08958CEA9CE0892B49F080E090E042
:1014D000892B29F00E94AC0C81110C940000089516
:1014E000FC01848DDF01A80FB11DA35ABF4F2C91C1
:1014F000848D90E001968F739927848FA689B78990
:101500002C93A089B1898C9180648C93938D848D68
:10151000981306C00288F389E02D80818F7D808337
:101520000895CF93DF93EC01888D8823C9F0EA8971
:10153000FB89808185FD05C0A889B9898C9186FDCC
:101540000FC00FB607FCF5CF808185FFF2CFA889C9
:10155000B9898C9185FFEDCFCE010E94700AE7CF4B
:10156000DF91CF910895CF92DF92FF920F931F9357
:10157000CF93DF931F92CDB7DEB76C01DC015B9692
:101580009C915B975C968C915C97981307C05096E2
:10159000ED91FC915197808185FD32C0F601038D5C
:1015A00010E00F5F1F4F0F731127F02EF601848D8F
:1015B000F81211C00FB607FCF9CFD6015096ED9185
:1015C000FC915197808185FFF1CFC60169830E940C
:1015D000700A6981EBCF838DE80FF11DE35AFF4F4D
:1015E0006083D6015B960C935B975296ED91FC91CC
:1015F000539780818062808381E058968C930DC0E0
:10160000D6015696ED91FC91579760835096ED91D7
:10161000FC91519780818064808381E090E00F90FD
:10162000DF91CF911F910F91FF90DF90CF900895A0
:10163000BF92CF92DF92EF92FF92CF93DF93EC01B4
:101640006A017B01B22EE889F98982E08083411525
:1016500081EE580761057105A1F060E079E08DE346
:1016600090E0A70196010E940C1021503109410918
:1016700051095695479537952795211580E13807EB
:1016800098F0E889F989108260E874E88EE190E0CA
:10169000A70196010E940C102150310941095109FE
:1016A0005695479537952795EC85FD853083EE85D2
:1016B000FF852083188EEC89FD89B082EA89FB8939
:1016C000808180618083EA89FB8980818860808352
:1016D000EA89FB89808180688083EA89FB8980812F
:1016E0008F7D8083DF91CF91FF90EF90DF90CF903F
:1016F000BF900895CF92DF92EF92FF920F931F93C6
:10170000CF93DF936C017A01EB01E60EF71E00E048
:1017100010E0CE15DF0561F06991D601ED91FC91E5
:101720000190F081E02DC6010995080F191FF1CF36
:10173000C801DF91CF911F910F91FF90EF90DF9043
:10174000CF9008956115710581F0DB010D900020A7
:10175000E9F7AD0141505109461B570BDC01ED91F2
:10176000FC910280F381E02D099480E090E00895DF
:101770000C94A20BDC01ED91FC910190F081E02D25
:1017800009940F931F93CF93DF93EC016DE00E94B8
:10179000BA0B8C016AE0CE010E94BA0B800F911F38
:1017A000DF91CF911F910F9108950F931F93CF93C6
:1017B000DF93EC010E94A20B8C01CE010E94C10BB1
:1017C000800F911FDF91CF911F910F9108958F92FC
:1017D0009F92AF92BF92CF92DF92EF92FF920F93C0
:1017E0001F93CF93DF93CDB7DEB7A1970FB6F894D1
:1017F000DEBF0FBECDBF7C01C42EE52FCB01D22EA4
:1018000019A221E02D1510F02AE0D22E8E010F5DD5
:101810001F4F8D2C912CA12CB12C6C2D7E2FA5014E
:1018200094010E940C108C2DD29E8019112401501D
:1018300011098A3014F4805D01C0895CF80180834D
:10184000211531054105510521F0C22EE32FCA01B2
:10185000E4CFB801C7010E94A20BA1960FB6F8947D
:10186000DEBF0FBECDBFDF91CF911F910F91FF90D3
:10187000EF90DF90CF90BF90AF909F908F900895A2
:101880002115310541F4DC01ED91FC910190F081CD
:10189000E02D642F09940C94E70B9A01462F50E039
:1018A00060E070E00C94400C1F920F920FB60F9204
:1018B00011242F938F939F93EF93FF93E091440212
:1018C000F09145028081E0914A02F0914B0282FD45
:1018D00012C0908180914D028F5F8F7320914E02D4
:1018E000821751F0E0914D02F0E0EC5CFD4F958FD6
:1018F00080934D0201C08081FF91EF919F918F9164
:101900002F910F900FBE0F901F9018951F920F925E
:101910000FB60F9211242F933F934F935F936F93C2
:101920007F938F939F93AF93BF93EF93FF9384E342
:1019300092E00E94700AFF91EF91BF91AF919F9149
:101940008F917F916F915F914F913F912F910F9068
:101950000FBE0F901F90189584E392E00E94350A05
:1019600021E0892B09F420E0822F0895109237029C
:101970001092360288EE93E0A0E0B0E08093380247
:1019800090933902A0933A02B0933B0289EB91E025
:10199000909335028093340285EC90E0909341025D
:1019A0008093400284EC90E0909343028093420243
:1019B00080EC90E0909345028093440281EC90E0AB
:1019C000909347028093460282EC90E09093490204
:1019D0008093480286EC90E090934B0280934A02F9
:1019E00010924D0210924E0210924F02109250022D
:1019F00008955058BB27AA270ED0A3C194D130F028
:101A000099D120F031F49F3F11F41EF464C10EF41B
:101A1000E095E7FB5AC1E92FA5D180F3BA17620719
:101A200073078407950718F071F49EF5BDC10EF495
:101A3000E0950B2EBA2FA02D0B01B90190010C01DE
:101A4000CA01A0011124FF27591B99F0593F50F4F6
:101A5000503E68F11A16F040A22F232F342F44274E
:101A6000585FF3CF469537952795A795F040539546
:101A7000C9F77EF41F16BA0B620B730B840BBAF016
:101A80009150A1F0FF0FBB1F661F771F881FC2F781
:101A90000EC0BA0F621F731F841F48F48795779595
:101AA0006795B795F7959E3F08F0B3CF9395880F4C
:101AB00008F09927EE0F9795879508950CD041C1AE
:101AC00039D140F030D130F021F45F3F19F0FDC042
:101AD00051116BC100C146D198F39923C9F3552325
:101AE000B1F3951B550BBB27AA2762177307840711
:101AF00038F09F5F5F4F220F331F441FAA1FA9F3C7
:101B000033D00E2E3AF0E0E830D091505040E695B8
:101B1000001CCAF729D0FE2F27D0660F771F881F19
:101B2000BB1F261737074807AB07B0E809F0BB0B08
:101B3000802DBF01FF2793585F4F2AF09E3F51052C
:101B400068F0C3C032C15F3FECF3983EDCF386958A
:101B500077956795B795F7959F5FC9F7880F911DA2
:101B60009695879597F90895E1E0660F771F881F8E
:101B7000BB1F621773078407BA0720F0621B730B41
:101B8000840BBA0BEE1F88F7E095089519F40EF058
:101B90009CC00AC1A0C0EED0C8F39638C0F707F8C1
:101BA0000F92E8942BE33AEA48EB5FE782D10F9279
:101BB0000F920F924DB75EB70F923AD1E8E6F0E080
:101BC0008DD04F915F91EF91FF91E595EE1FFF1F33
:101BD00049F0FE57E0684427EE0F441FFA95E1F7FD
:101BE0004195550BF1D00F9007FEE5C0089504D044
:101BF0006894B111DAC00895BDD088F09F5790F075
:101C0000B92F9927B751A0F0D1F0660F771F881F21
:101C1000991F1AF0BA95C9F712C0B13081F0C4D03B
:101C2000B1E00895C1C0672F782F8827B85F39F0D9
:101C3000B93FCCF3869577956795B395D9F73EF480
:101C400090958095709561957F4F8F4F9F4F089528
:101C5000E89409C097FB3EF4909580957095619546
:101C60007F4F8F4F9F4F9923A9F0F92F96E9BB27FC
:101C70009395F695879577956795B795F111F8CF78
:101C8000FAF4BB0F11F460FF1BC06F5F7F4F8F4FE3
:101C90009F4F16C0882311F096E911C0772321F0D9
:101CA0009EE8872F762F05C0662371F096E8862F71
:101CB00070E060E02AF09A95660F771F881FDAF7C8
:101CC000880F9695879597F9089597F99F6780E80B
:101CD00070E060E008959FEF80EC0895DF93CF936C
:101CE0001F930F93FF92EF92DF927B018C01689418
:101CF00005C0DA2EEF01DBD0FE01E894A591259115
:101D0000359145915591AEF3EF0185DEFE019701C6
:101D1000A801DA9479F7DF90EF90FF900F911F916F
:101D2000CF91DF91089500240A941616170618061D
:101D30000906089500240A941216130614060506CF
:101D40000895092E0394000C11F4882352F0BB0F60
:101D500040F4BF2B11F460FF04C06F5F7F4F8F4FC3
:101D60009F4F089557FD9058440F551F59F05F3FFE
:101D700071F04795880F97FB991F61F09F3F79F0AD
:101D800087950895121613061406551FF2CF46952F
:101D9000F1DF08C0161617061806991FF1CF8695B1
:101DA0007105610508940895E894BB276627772795
:101DB000CB0197F908959B01AC0160E070E080E8E9
:101DC0009FE37CCE82CFD0C0D5DFE8F39923D9F34F
:101DD000940F511DBBF39150504094F059F088235B
:101DE00032F0660F771F881F91505040C1F79E3F19
:101DF000510544F7880F911D9695879597F9089599
:101E00005F3FACF0983E9CF0BB2786957795679531
:101E1000B79508F4B1609395C1F7BB0F58F711F46B
:101E200060FFE8CF6F5F7F4F8F4F9F4FE3CFBDCFF6
:101E3000FA01DC01AA0FBB1F9B01AC01BF5728F4BC
:101E400022273327442750781FC0B75188F4AB2F7F
:101E50000024469537952795011CA395D2F30020C1
:101E600069F0220F331F441FB395DAF30DD0C1CDB3
:101E700061307105A0E88A07B94630F49B01AC01D6
:101E80006627772788279078309621F02083318342
:101E90004283538308950BD054CF45DF28F04ADFA7
:101EA00018F0952309F011CF16CF11247ECF5ADFF9
:101EB000A0F3959FD1F3950F50E0551F629FF0015D
:101EC000729FBB27F00DB11D639FAA27F00DB11DB6
:101ED000AA1F649F6627B00DA11D661F829F22273F
:101EE000B00DA11D621F739FB00DA11D621F839FC6
:101EF000A00D611D221F749F3327A00D611D231F9C
:101F0000849F600D211D822F762F6A2F11249F57E9
:101F100050408AF0E1F088234AF0EE0FFF1FBB1F0C
:101F2000661F771F881F91505040A9F79E3F5105AB
:101F300070F0CBCE3ACF5F3FECF3983EDCF3869562
:101F400077956795B795F795E7959F5FC1F7FE2B56
:101F5000880F911D9695879597F908959F9313D0B3
:101F60000F9007FCEE5F36C09F3F31F0915020F498
:101F7000879577956795B795880F911D9695879565
:101F800097F90895A8CEF6DEE8F3E894E0E0BB27E1
:101F90009F57F0F02AED3FE049EC06C0EE0FBB0F73
:101FA000661F771F881F28F0B23A620773078407FD
:101FB00028F0B25A620B730B840BE3959A9572F773
:101FC000803830F49A95BB0F661F771F881FD2F7B1
:101FD0009048CCCFEF93E0FF06C0A2EA2AED3FE0A5
:101FE00049EC5FEB18DDADDE0F90039401FC9058D7
:101FF000E0E9F0E000C09F938F937F936F93FF938E
:10200000EF939B01AC0147DFEF91FF9167DE2F91CA
:102010003F914F915F913FCFA1E21A2EAA1BBB1BAC
:10202000FD010DC0AA1FBB1FEE1FFF1FA217B307A4
:10203000E407F50720F0A21BB30BE40BF50B661FBA
:10204000771F881F991F1A9469F76095709580957E
:1020500090959B01AC01BD01CF010895EE0FFF1FCC
:0C2060000590F491E02D0994F894FFCF56
:10206C00016368616E67656D656368616E67656D58
:10207C00650052656164792E2E2E0043616C6C698B
:10208C006E672E2E2E20003A00202D207761697469
:10209C00696E6720666F722041434B2E2E2E0049CD
:1020AC006E76616C6964207061796C6F616420720A
:1020BC006563696576656400526563696576656418
:1020CC003A200041434B2073656E74007265636562
:1020DC0069766564204F4B006E6F206D657373617C
:1020EC0067653A2000536C656570696E672E2E2EFD
:1020FC007A7A7A2E2E2E00204177616B6521006F43
:10210C006B21006E6F207265706C792E2E2E000084
:10211C00000000010500000000B30A7A0B350A4EDE
:06212C000A400A910A00BE
:00000001FF
