:100000000C9463000C94BA050C94E7050C948B00D7
:100010000C948B000C948B000C948B000C948B0034
:100020000C948B000C948B000C948B000C948B0024
:100030000C948B000C948B000C948B000C948B0014
:100040000C94D5060C948B000C9483090C94B50980
:100050000C948B000C948B000C948B000C948B00F4
:100060000C948B000C948B0000000008000201002F
:100070000003040700000000000000000102040863
:100080001020408001020408102001020408102002
:10009000040404040404040402020202020203032E
:1000A00003030303000000002300260029000000D2
:1000B0000000250028002B0000000000240027007D
:1000C0002A000E01E50911241FBECFEFD8E0DEBFE4
:1000D000CDBF11E0A0E0B1E0E4EAF4E102C0059098
:1000E0000D92A433B107D9F722E0A4E3B1E001C037
:1000F0001D92A633B207E1F710E0C6ECD0E004C0D1
:100100002297FE010E944C0AC23CD107C9F70E9407
:1001100067070C94500A0C94000026E040E855E272
:1001200060E070E089E991E00E94590827E54EEF10
:1001300066E584E391E00E94930460E071E084E36B
:1001400091E00C945A040F9384E391E00E94A90378
:10015000882309F461C080914C01823009F05CC0B1
:1001600080914E0190914F01909342018093410103
:100170004AE050E06091420189E991E00E947C09E7
:100180006BE171E089E991E00E94F9084AE050E0F2
:100190006091410189E991E00E947C0989E991E03F
:1001A0000E94020984E391E00E943901882339F01A
:1001B00040E06AE171E084E391E00E9406048091EE
:1001C0004101813049F561E171E089E991E00E94E6
:1001D000F908609142016093400183E080933F0100
:1001E0004AE050E089E991E00E947C094AE050E051
:1001F00060913F0189E991E00E947C0989E991E0E1
:100200000E94020901E022E04FE351E060914201C7
:1002100084E391E00E94C1030F91089581E291E08F
:1002200090933501809334018AE08093360182E017
:10023000809337011092380181E080934D01109234
:100240003A018FE180933B0110923C010895809127
:10025000430190914401DC01ED91FC910190F0810A
:10026000E02D09948EBD00000DB407FEFDCF8EB5C4
:10027000089580914801882329F090914A0181E0F6
:100280009F3F09F480E00895FC01F8948CB58187C4
:100290008DB582878CB5837F8CBD8CB58F7D8CBDF1
:1002A0008CB58C7F8CBD8DB58E7F8DBD60E08281DD
:1002B0000C947606CF93DF93EC0161E08A810E9473
:1002C000760689858CBD8A858DBD7894DF91CF9126
:1002D0000895EF92FF921F93CF93DF931F92CDB7B4
:1002E000DEB77C0169830E9444016981862F8F7784
:1002F0000E94320180E00E943201182FC7010E9443
:100300005A01812F0F90DF91CF911F91FF90EF90B5
:1003100008950F931F93CF93DF9300D0CDB7DEB72F
:100320008C014A8369830E9444016981862F806819
:100330000E9432014A81842F0E943201C8010F902D
:100340000F90DF91CF911F910F910C945A01CF9391
:10035000DF93EC0161110DC064E2CE010E946901DE
:1003600090E091958195910995958795DF91CF9131
:10037000089541E063E20E94890163E2CE010E9498
:10038000690181FFFACFE8CFCF93DF93EC01688753
:10039000662311F04FE001C04AE163E1CE010E9403
:1003A00089018885882341F061E1CE010E946901BD
:1003B000482F4F71406602C04F81406861E1CE0115
:1003C000DF91CF910C9489011F93CF93DF93EC01C0
:1003D000162F662311F04DE501C045E56AE5CE0113
:1003E0000E948901112311F04CE701C040E76CE540
:1003F000CE01DF91CF911F910C9489011F93CF9370
:10040000DF93EC01162F80914D01681709F456C057
:100410006230B1F168F46623D9F1613009F04EC061
:1004200061E0CE010E946901482F437E446036C0DE
:10043000633099F0643009F041C061E0CE010E9460
:100440006901482F437E4C6061E0CE010E94890122
:100450008885882339F161E00FC061E0CE010E94F8
:100460006901482F437E406161E0CE010E9489010D
:1004700088858823B9F060E0CE010E94E40112C0B3
:1004800061E0CE010E946901482F437E486006C0AA
:1004900061E0CE010E946901482F437E61E0CE01F8
:1004A0000E94890180914D01811106C067E2CE0151
:1004B0000E94690187FFF6CF10934D01DF91CF9124
:1004C0001F910895CF93DF93EC0180914D0183300C
:1004D00089F48091490181110DC060E0CE010E9434
:1004E000A701863A9F4F34F461E0CE010E94FE01DD
:1004F00081E001C080E0DF91CF910895CF92DF923B
:10050000EF92FF920F931F93CF93DF93EC01F62EA0
:10051000D42EC52E122F61E00E94FE0167E2CE01AB
:100520000E94690187FFFACF40E065E2CE010E9498
:1005300089011E3308F01DE3E11004C0002319F007
:1005400000E401C000E8CE010E94440180E80E945E
:10055000320183E0810F0E9432018F2D0E9432010F
:100560008D810E943201802F0E9432010D2DED2CD1
:10057000FC2C8E2D801B811730F4F70181917F01B7
:100580000E943201F6CFCE010E945A0164E0CE01F2
:100590000E94FE010E941F076B017C018B810E945B
:1005A000AC06892B61F061E0CE01DF91CF911F9104
:1005B0000F91FF90EF90DF90CF900C94FE010E947E
:1005C0001F076C197D098E099F09683E73408105DC
:1005D000910548F7E3CFCF93DF93EC0110924C01E4
:1005E00010924B0110924A01109249011092480159
:1005F00010924701109246011092450168E20E9454
:10060000690182FF0AC06DE3CE010E946901482F93
:1006100044606DE3CE010E94890140E465E2CE01B1
:100620000E94890163E0CE01DF91CF910C94FE011D
:10063000FF920F931F93CF93DF93EC0180914D01B5
:100640008330C1F468E2CE010E94690182FD20C0BE
:1006500011C080914C018D3330F4E0914C01F0E0F9
:10066000E25BFE4F1082CE010E945A0163E0CE0190
:100670000E94FE0160E0CE010E94A7019093460116
:1006800080934501DF91CF911F910F91FF900895C5
:1006900061E0CE010E94FE01CE010E94440180E093
:1006A0000E94320180E00E943201809349018091D2
:1006B00049018334D0F4809149018093490180E05D
:1006C0000E94320180934A018E81811109C090916C
:1006D0004A018D81981721F080914A018F3F39F4AA
:1006E00080914901833018F00FC082E4E6CF109268
:1006F0004901CE010E945A01CE01DF91CF911F9195
:100700000F91FF900C94EB028091490183508093EC
:100710004C0180E00E94320180934B0180E00E94F6
:100720003201982F9078909347018074809348010C
:10073000F12C80914C01F81608F08BCF0F2D10E0B2
:1007400080E00E943201F801E25BFE4F8083F39467
:10075000F0CFF89420914D01233021F420914901EC
:1007600021110AC020914D01233011F4789402C068
:100770000E94EB0280E0089561E00E94FE0181E0AA
:1007800008954F925F926F927F929F92AF92BF9225
:10079000EF920F931F93CF93DF93EC01162F5A0123
:1007A000922E6DE30E946901482F44606DE3CE01F3
:1007B0000E9489010E941F072B013C01CE010E946B
:1007C00062028823A1F0E12C292DA501612FCE0121
:1007D0000E947E02DF91CF911F910F91EF90BF9009
:1007E000AF909F907F906F905F904F9008950E9480
:1007F0001F076419750986099709683E73408105CA
:10080000910508F7CE010E94A903D8CF4F925F92BD
:100810006F927F929F92AF92BF92CF92DF92EF92B0
:10082000FF920F93CF93DF93EC015B01942EF09036
:100830004B01C0904501D09046016DE30E946901D3
:10084000482F44606DE3CE010E9489010E941F077A
:100850002B013C01CE010E9462028823E1F0EE24CC
:10086000E39400E0292DA5016F2DCE010E947E02A8
:10087000D0924601C0924501DF91CF910F91FF9038
:10088000EF90DF90CF90BF90AF909F907F906F9050
:100890005F904F9008950E941F076419750986099B
:1008A0009709683E734081059105C8F6CE010E9404
:1008B000A903D0CFDF92EF92FF920F931F93CF93B4
:1008C000DF93EC018B0161E00E94FE01011511052F
:1008D000A1F0CE010E9444018EEB0E94320178010A
:1008E000D12CF70181917F010E943201D394F0E174
:1008F000DF12F7CFCE010E945A016DE3CE010E94B4
:1009000069018E7F91E0012B09F490E0482F492B7B
:100910006DE3CE01DF91CF911F910F91FF90EF908A
:10092000DF900C948901CF92DF92EF92FF920F93A8
:100930001F93CF93DF93CDB7DEB7AE970FB6F89482
:10094000DEBF0FBECDBF8C01C42E8EE2AE014F5F65
:100950005F4F7A01FA01482F11924A95E9F791E029
:10096000998334E03A8342E04B8393E09D834E8346
:100970003F8340E4488735E039879A8796E09B8734
:1009800093E39C8737E03D8798E09F8799E0998BB8
:1009900099E19B8B92E49C8B55E25D8B4E8B46E2FA
:1009A0004F8B388F38E2398F30E13A8F39E23B8F05
:1009B0003CED3C8F8D8F88E88E8F8FE28F8F8DE29C
:1009C00088A380E389A337E33BA330E93CA338E362
:1009D0003DA39EA39CE39FA39FE898A79DE399A7AF
:1009E00092E19AA79FE69BA78CA78FEF8DA76F3107
:1009F00031F06B3231F0663531F489ED05C08EE4AB
:100A000003C08CE601C084EE8E876F3141F06B32FB
:100A100021F0663521F480E003C080E401C080EC61
:100A2000888B2AA361E0F80182810E94760661E04A
:100A3000F80182810E943D060E9475054AEA6FE234
:100A4000C8010E9489016FE2C8010E9469018A3AC7
:100A5000A9F745E56FE2C8010E9489016FE2C8016C
:100A60000E9469018535A9F7D12CF701ED0DF11D23
:100A7000ED0DF11D60816F3F31F04181C8010E9491
:100A80008901D394F2CF60E070E0C8010E945A045B
:100A9000F8016085C8010E94C40161E0C8010E949C
:100AA000FE0167E2C8010E94690187FFFACF43E0B7
:100AB00050E067E271E0F80184810E949A0510938A
:100AC000440100934301F801C58281E0AE960FB660
:100AD000F894DEBF0FBECDBFDF91CF911F910F9174
:100AE000FF90EF90DF90CF900895CF93CFB7F89419
:100AF00080918B01811116C061E08AE00E94760628
:100B000061E08AE00E943D068CB580618CBD8CB5A9
:100B100080648CBD61E08DE00E943D0661E08BE069
:100B20000E943D0680918B018F5F80938B01CFBF28
:100B3000CF9108958230E8F4E82FF0E0EE0FFF1F28
:100B4000E457FE4F71836083813041F080916900EA
:100B50008C7F842B80936900E89A089580916900C6
:100B6000440F551F440F551F837F842B80936900CA
:100B7000E99A08951F920F920FB60F9211242F93A6
:100B80003F934F935F936F937F938F939F93AF9315
:100B9000BF93EF93FF9380918C0190918D01892BEE
:100BA00029F0E0918C01F0918D010995FF91EF9171
:100BB000BF91AF919F918F917F916F915F914F9175
:100BC0003F912F910F900FBE0F901F9018951F927D
:100BD0000F920FB60F9211242F933F934F935F9371
:100BE0006F937F938F939F93AF93BF93EF93FF93F5
:100BF00080918E0190918F01892B29F0E0918E01D7
:100C0000F0918F010995FF91EF91BF91AF919F9165
:100C10008F917F916F915F914F913F912F910F90A5
:100C20000FBE0F901F901895833081F028F481300B
:100C300099F08230A1F008958730A9F08830B9F09A
:100C40008430D1F4809180008F7D03C0809180003A
:100C50008F7780938000089584B58F7702C084B524
:100C60008F7D84BD08958091B0008F7703C08091FF
:100C7000B0008F7D8093B0000895CF93DF9390E014
:100C8000FC01E458FF4F2491FC01E057FF4F849191
:100C9000882349F190E0880F991FFC01E854FF4F29
:100CA000A591B49182559F4FFC01C591D4919FB7F6
:100CB000611108C0F8948C91209582238C938881CF
:100CC00082230AC0623051F4F8948C91322F30950F
:100CD00083238C938881822B888304C0F8948C9121
:100CE000822B8C939FBFDF91CF9108950F931F9319
:100CF000CF93DF931F92CDB7DEB7282F30E0F901F5
:100D0000E859FF4F8491F901E458FF4F1491F9011C
:100D1000E057FF4F04910023C9F0882321F0698335
:100D20000E9414066981E02FF0E0EE0FFF1FE255EC
:100D3000FF4FA591B4919FB7F8948C91611103C0B6
:100D40001095812301C0812B8C939FBF0F90DF9161
:100D5000CF911F910F910895CF93DF93282F30E00B
:100D6000F901E859FF4F8491F901E458FF4FD491FC
:100D7000F901E057FF4FC491CC2391F081110E94FB
:100D80001406EC2FF0E0EE0FFF1FEC55FF4FA5917E
:100D9000B4912C912D2381E090E021F480E002C0F9
:100DA00080E090E0DF91CF9108951F920F920FB6EF
:100DB0000F9211242F933F938F939F93AF93BF93E1
:100DC0008091910190919201A0919301B091940131
:100DD0003091900123E0230F2D3720F40196A11DBF
:100DE000B11D05C026E8230F0296A11DB11D209359
:100DF00090018093910190939201A0939301B093FD
:100E000094018091950190919601A0919701B091E4
:100E100098010196A11DB11D8093950190939601B3
:100E2000A0939701B0939801BF91AF919F918F913B
:100E30003F912F910F900FBE0F901F9018952FB7D5
:100E4000F894609191017091920180919301909139
:100E500094012FBF0895789484B5826084BD84B5D1
:100E6000816084BD85B5826085BD85B5816085BDA5
:100E7000EEE6F0E0808181608083E1E8F0E01082BE
:100E8000808182608083808181608083E0E8F0E0FF
:100E9000808181608083E1EBF0E0808184608083E9
:100EA000E0EBF0E0808181608083EAE7F0E0808120
:100EB0008460808380818260808380818160808380
:100EC0008081806880831092C100089508950E94F7
:100ED0002B070E9466070E948D00C3EAD7E00E949C
:100EE000A3002097E1F30E94A307F9CFFC01818DB5
:100EF000228D90E0805C9F4F821B91098F73992710
:100F00000895FC01918D828D981731F0828DE80F44
:100F1000F11D858D90E008958FEF9FEF0895FC01FE
:100F2000918D828D981761F0828DDF01A80FB11D20
:100F30005D968C91928D9F5F9F73928F90E0089544
:100F40008FEF9FEF08958BED99E0892B49F080E0BA
:100F500090E0892B29F00E94DB0981110C9400009C
:100F60000895FC01848DDF01A80FB11DA35ABF4F66
:100F70002C91848D90E001968F739927848FA68998
:100F8000B7892C93A089B1898C9180648C93938DBF
:100F9000848D981306C00288F389E02D80818F7DAF
:100FA00080830895CF93DF93EC01888D8823C9F067
:100FB000EA89FB89808185FD05C0A889B9898C9162
:100FC00086FD0FC00FB607FCF5CF808185FFF2CFFD
:100FD000A889B9898C9185FFEDCFCE010E94B10718
:100FE000E7CFDF91CF910895CF92DF92FF920F93D9
:100FF0001F93CF93DF931F92CDB7DEB76C01DC0157
:101000005B969C915B975C968C915C97981307C05C
:101010005096ED91FC915197808185FD32C0F6018B
:10102000038D10E00F5F1F4F0F731127F02EF60195
:10103000848DF81211C00FB607FCF9CFD601509677
:10104000ED91FC915197808185FFF1CFC6016983B5
:101050000E94B1076981EBCF838DE80FF11DE35A40
:10106000FF4F6083D6015B960C935B975296ED9190
:10107000FC91539780818062808381E058968C93A5
:101080000DC0D6015696ED91FC915797608350960E
:10109000ED91FC91519780818064808381E090E0A4
:1010A0000F90DF91CF911F910F91FF90DF90CF9024
:1010B0000895BF92CF92DF92EF92FF92CF93DF938A
:1010C000EC016A017B01B22EE889F98982E0808314
:1010D000411581EE580761057105A1F060E079E0E6
:1010E0008DE390E0A70196010E94280A2150310962
:1010F000410951095695479537952795211580E166
:10110000380798F0E889F989108260E874E88EE180
:1011100090E0A70196010E94280A21503109410957
:1011200051095695479537952795EC85FD85308370
:10113000EE85FF852083188EEC89FD89B082EA89CF
:10114000FB89808180618083EA89FB898081886056
:101150008083EA89FB89808180688083EA89FB89B2
:1011600080818F7D8083DF91CF91FF90EF90DF9022
:10117000CF90BF900895CF92DF92EF92FF920F939E
:101180001F93CF93DF936C017A01EB01E60EF71EFC
:1011900000E010E0CE15DF0561F06991D601ED9118
:1011A000FC910190F081E02DC6010995080F191FEF
:1011B000F1CFC801DF91CF911F910F91FF90EF9078
:1011C000DF90CF9008956115710581F0DB010D90DE
:1011D0000020E9F7AD0141505109461B570BDC01D6
:1011E000ED91FC910280F381E02D099480E090E084
:1011F00008950C94E308DC01ED91FC910190F081DD
:10120000E02D09940F931F93CF93DF93EC016DE0D2
:101210000E94FB088C016AE0CE010E94FB08800F4F
:10122000911FDF91CF911F910F9108958F929F92FF
:10123000AF92BF92CF92DF92EF92FF920F931F93E4
:10124000CF93DF93CDB7DEB7A1970FB6F894DEBF8B
:101250000FBECDBF7C01C42EE52FCB01D22E19A22B
:1012600021E02D1510F02AE0D22E8E010F5D1F4FC8
:101270008D2C912CA12CB12C6C2D7E2FA5019401CD
:101280000E94280A8C2DD29E801911240150110928
:101290008A3014F4805D01C0895CF80180832115D7
:1012A00031054105510521F0C22EE32FCA01E4CFDB
:1012B000B801C7010E94E308A1960FB6F894DEBFFB
:1012C0000FBECDBFDF91CF911F910F91FF90EF9097
:1012D000DF90CF90BF90AF909F908F900895211591
:1012E000310541F4DC01ED91FC910190F081E02D9C
:1012F000642F09940C9416099A01462F50E060E07F
:1013000070E00C946F091F920F920FB60F92112488
:101310002F938F939F93EF93FF93E091A901F09107
:10132000AA018081E091AF01F091B00182FD12C06D
:1013300090818091B2018F5F8F732091B3018217EA
:1013400051F0E091B201F0E0E756FE4F958F8093A7
:10135000B20101C08081FF91EF919F918F912F91F8
:101360000F900FBE0F901F9018951F920F920FB6FF
:101370000F9211242F933F934F935F936F937F931B
:101380008F939F93AF93BF93EF93FF9389E991E07E
:101390000E94B107FF91EF91BF91AF919F918F9103
:1013A0007F916F915F914F913F912F910F900FBE61
:1013B0000F901F90189589E991E00E94760721E02F
:1013C000892B09F420E0822F089510929C0110923D
:1013D0009B0188EE93E0A0E0B0E080939D019093A4
:1013E0009E01A0939F01B093A00187E291E09093AA
:1013F0009A018093990185EC90E09093A6018093E7
:10140000A50184EC90E09093A8018093A70180EC63
:1014100090E09093AA018093A90181EC90E09093D1
:10142000AC018093AB0182EC90E09093AE0180938D
:10143000AD0186EC90E09093B0018093AF011092E3
:10144000B2011092B3011092B4011092B501089547
:10145000A1E21A2EAA1BBB1BFD010DC0AA1FBB1FB8
:10146000EE1FFF1FA217B307E407F50720F0A21B2A
:10147000B30BE40BF50B661F771F881F991F1A9497
:1014800069F760957095809590959B01AC01BD01C1
:10149000CF010895EE0FFF1F0590F491E02D099400
:0414A000F894FFCFEE
:1014A4006368616E67656D656368616E67656D65C8
:1014B4000053656E64696E673A20002C00000000DA
:1014C40000180300000000F407BB0876078F0781AB
:0414D40007D2070034
:00000001FF
